{
  "_format": "hh-sol-artifact-1",
  "contractName": "WellnessToken",
  "sourceName": "contracts/WellnessToken.sol",
  "abi": [
    {
      "inputs": [],
      "stateMutability": "nonpayable",
      "type": "constructor"
    },
    {
      "anonymous": false,
      "inputs": [
        {
          "indexed": true,
          "internalType": "address",
          "name": "user",
          "type": "address"
        },
        {
          "indexed": false,
          "internalType": "string",
          "name": "activityType",
          "type": "string"
        },
        {
          "indexed": false,
          "internalType": "uint256",
          "name": "timestamp",
          "type": "uint256"
        }
      ],
      "name": "ActivityValidated",
      "type": "event"
    },
    {
      "anonymous": false,
      "inputs": [
        {
          "indexed": true,
          "internalType": "address",
          "name": "owner",
          "type": "address"
        },
        {
          "indexed": true,
          "internalType": "address",
          "name": "spender",
          "type": "address"
        },
        {
          "indexed": false,
          "internalType": "uint256",
          "name": "value",
          "type": "uint256"
        }
      ],
      "name": "Approval",
      "type": "event"
    },
    {
      "anonymous": false,
      "inputs": [
        {
          "indexed": false,
          "internalType": "address",
          "name": "account",
          "type": "address"
        }
      ],
      "name": "Paused",
      "type": "event"
    },
    {
      "anonymous": false,
      "inputs": [
        {
          "indexed": true,
          "internalType": "bytes32",
          "name": "role",
          "type": "bytes32"
        },
        {
          "indexed": true,
          "internalType": "bytes32",
          "name": "previousAdminRole",
          "type": "bytes32"
        },
        {
          "indexed": true,
          "internalType": "bytes32",
          "name": "newAdminRole",
          "type": "bytes32"
        }
      ],
      "name": "RoleAdminChanged",
      "type": "event"
    },
    {
      "anonymous": false,
      "inputs": [
        {
          "indexed": true,
          "internalType": "bytes32",
          "name": "role",
          "type": "bytes32"
        },
        {
          "indexed": true,
          "internalType": "address",
          "name": "account",
          "type": "address"
        },
        {
          "indexed": true,
          "internalType": "address",
          "name": "sender",
          "type": "address"
        }
      ],
      "name": "RoleGranted",
      "type": "event"
    },
    {
      "anonymous": false,
      "inputs": [
        {
          "indexed": true,
          "internalType": "bytes32",
          "name": "role",
          "type": "bytes32"
        },
        {
          "indexed": true,
          "internalType": "address",
          "name": "account",
          "type": "address"
        },
        {
          "indexed": true,
          "internalType": "address",
          "name": "sender",
          "type": "address"
        }
      ],
      "name": "RoleRevoked",
      "type": "event"
    },
    {
      "anonymous": false,
      "inputs": [
        {
          "indexed": true,
          "internalType": "address",
          "name": "user",
          "type": "address"
        },
        {
          "indexed": false,
          "internalType": "uint256",
          "name": "amount",
          "type": "uint256"
        },
        {
          "indexed": false,
          "internalType": "string",
          "name": "rewardType",
          "type": "string"
        }
      ],
      "name": "TokensBurned",
      "type": "event"
    },
    {
      "anonymous": false,
      "inputs": [
        {
          "indexed": true,
          "internalType": "address",
          "name": "user",
          "type": "address"
        },
        {
          "indexed": false,
          "internalType": "uint256",
          "name": "amount",
          "type": "uint256"
        },
        {
          "indexed": false,
          "internalType": "string",
          "name": "activityType",
          "type": "string"
        }
      ],
      "name": "TokensMinted",
      "type": "event"
    },
    {
      "anonymous": false,
      "inputs": [
        {
          "indexed": true,
          "internalType": "address",
          "name": "from",
          "type": "address"
        },
        {
          "indexed": true,
          "internalType": "address",
          "name": "to",
          "type": "address"
        },
        {
          "indexed": false,
          "internalType": "uint256",
          "name": "value",
          "type": "uint256"
        }
      ],
      "name": "Transfer",
      "type": "event"
    },
    {
      "anonymous": false,
      "inputs": [
        {
          "indexed": false,
          "internalType": "address",
          "name": "account",
          "type": "address"
        }
      ],
      "name": "Unpaused",
      "type": "event"
    },
    {
      "inputs": [],
      "name": "ACTIVITY_COOLDOWN",
      "outputs": [
        {
          "internalType": "uint256",
          "name": "",
          "type": "uint256"
        }
      ],
      "stateMutability": "view",
      "type": "function"
    },
    {
      "inputs": [],
      "name": "ADMIN_ROLE",
      "outputs": [
        {
          "internalType": "bytes32",
          "name": "",
          "type": "bytes32"
        }
      ],
      "stateMutability": "view",
      "type": "function"
    },
    {
      "inputs": [],
      "name": "DEFAULT_ADMIN_ROLE",
      "outputs": [
        {
          "internalType": "bytes32",
          "name": "",
          "type": "bytes32"
        }
      ],
      "stateMutability": "view",
      "type": "function"
    },
    {
      "inputs": [],
      "name": "MAX_ACTIVITIES_PER_DAY",
      "outputs": [
        {
          "internalType": "uint256",
          "name": "",
          "type": "uint256"
        }
      ],
      "stateMutability": "view",
      "type": "function"
    },
    {
      "inputs": [],
      "name": "MEDITATION_STREAK_REWARD",
      "outputs": [
        {
          "internalType": "uint256",
          "name": "",
          "type": "uint256"
        }
      ],
      "stateMutability": "view",
      "type": "function"
    },
    {
      "inputs": [],
      "name": "STEPS_REWARD",
      "outputs": [
        {
          "internalType": "uint256",
          "name": "",
          "type": "uint256"
        }
      ],
      "stateMutability": "view",
      "type": "function"
    },
    {
      "inputs": [],
      "name": "VALIDATOR_ROLE",
      "outputs": [
        {
          "internalType": "bytes32",
          "name": "",
          "type": "bytes32"
        }
      ],
      "stateMutability": "view",
      "type": "function"
    },
    {
      "inputs": [
        {
          "internalType": "address",
          "name": "",
          "type": "address"
        }
      ],
      "name": "activityCount",
      "outputs": [
        {
          "internalType": "uint256",
          "name": "",
          "type": "uint256"
        }
      ],
      "stateMutability": "view",
      "type": "function"
    },
    {
      "inputs": [
        {
          "internalType": "address",
          "name": "validator",
          "type": "address"
        }
      ],
      "name": "addValidator",
      "outputs": [],
      "stateMutability": "nonpayable",
      "type": "function"
    },
    {
      "inputs": [
        {
          "internalType": "address",
          "name": "owner",
          "type": "address"
        },
        {
          "internalType": "address",
          "name": "spender",
          "type": "address"
        }
      ],
      "name": "allowance",
      "outputs": [
        {
          "internalType": "uint256",
          "name": "",
          "type": "uint256"
        }
      ],
      "stateMutability": "view",
      "type": "function"
    },
    {
      "inputs": [
        {
          "internalType": "address",
          "name": "spender",
          "type": "address"
        },
        {
          "internalType": "uint256",
          "name": "amount",
          "type": "uint256"
        }
      ],
      "name": "approve",
      "outputs": [
        {
          "internalType": "bool",
          "name": "",
          "type": "bool"
        }
      ],
      "stateMutability": "nonpayable",
      "type": "function"
    },
    {
      "inputs": [
        {
          "internalType": "address",
          "name": "account",
          "type": "address"
        }
      ],
      "name": "balanceOf",
      "outputs": [
        {
          "internalType": "uint256",
          "name": "",
          "type": "uint256"
        }
      ],
      "stateMutability": "view",
      "type": "function"
    },
    {
      "inputs": [
        {
          "internalType": "uint256",
          "name": "amount",
          "type": "uint256"
        },
        {
          "internalType": "string",
          "name": "rewardType",
          "type": "string"
        }
      ],
      "name": "burnForReward",
      "outputs": [],
      "stateMutability": "nonpayable",
      "type": "function"
    },
    {
      "inputs": [],
      "name": "decimals",
      "outputs": [
        {
          "internalType": "uint8",
          "name": "",
          "type": "uint8"
        }
      ],
      "stateMutability": "view",
      "type": "function"
    },
    {
      "inputs": [
        {
          "internalType": "address",
          "name": "spender",
          "type": "address"
        },
        {
          "internalType": "uint256",
          "name": "subtractedValue",
          "type": "uint256"
        }
      ],
      "name": "decreaseAllowance",
      "outputs": [
        {
          "internalType": "bool",
          "name": "",
          "type": "bool"
        }
      ],
      "stateMutability": "nonpayable",
      "type": "function"
    },
    {
      "inputs": [
        {
          "internalType": "bytes32",
          "name": "role",
          "type": "bytes32"
        }
      ],
      "name": "getRoleAdmin",
      "outputs": [
        {
          "internalType": "bytes32",
          "name": "",
          "type": "bytes32"
        }
      ],
      "stateMutability": "view",
      "type": "function"
    },
    {
      "inputs": [
        {
          "internalType": "bytes32",
          "name": "role",
          "type": "bytes32"
        },
        {
          "internalType": "address",
          "name": "account",
          "type": "address"
        }
      ],
      "name": "grantRole",
      "outputs": [],
      "stateMutability": "nonpayable",
      "type": "function"
    },
    {
      "inputs": [
        {
          "internalType": "bytes32",
          "name": "role",
          "type": "bytes32"
        },
        {
          "internalType": "address",
          "name": "account",
          "type": "address"
        }
      ],
      "name": "hasRole",
      "outputs": [
        {
          "internalType": "bool",
          "name": "",
          "type": "bool"
        }
      ],
      "stateMutability": "view",
      "type": "function"
    },
    {
      "inputs": [
        {
          "internalType": "address",
          "name": "spender",
          "type": "address"
        },
        {
          "internalType": "uint256",
          "name": "addedValue",
          "type": "uint256"
        }
      ],
      "name": "increaseAllowance",
      "outputs": [
        {
          "internalType": "bool",
          "name": "",
          "type": "bool"
        }
      ],
      "stateMutability": "nonpayable",
      "type": "function"
    },
    {
      "inputs": [
        {
          "internalType": "address",
          "name": "",
          "type": "address"
        }
      ],
      "name": "lastActivityTimestamp",
      "outputs": [
        {
          "internalType": "uint256",
          "name": "",
          "type": "uint256"
        }
      ],
      "stateMutability": "view",
      "type": "function"
    },
    {
      "inputs": [],
      "name": "name",
      "outputs": [
        {
          "internalType": "string",
          "name": "",
          "type": "string"
        }
      ],
      "stateMutability": "view",
      "type": "function"
    },
    {
      "inputs": [],
      "name": "pause",
      "outputs": [],
      "stateMutability": "nonpayable",
      "type": "function"
    },
    {
      "inputs": [],
      "name": "paused",
      "outputs": [
        {
          "internalType": "bool",
          "name": "",
          "type": "bool"
        }
      ],
      "stateMutability": "view",
      "type": "function"
    },
    {
      "inputs": [
        {
          "internalType": "address",
          "name": "validator",
          "type": "address"
        }
      ],
      "name": "removeValidator",
      "outputs": [],
      "stateMutability": "nonpayable",
      "type": "function"
    },
    {
      "inputs": [
        {
          "internalType": "bytes32",
          "name": "role",
          "type": "bytes32"
        },
        {
          "internalType": "address",
          "name": "account",
          "type": "address"
        }
      ],
      "name": "renounceRole",
      "outputs": [],
      "stateMutability": "nonpayable",
      "type": "function"
    },
    {
      "inputs": [],
      "name": "resetDailyActivityCount",
      "outputs": [],
      "stateMutability": "nonpayable",
      "type": "function"
    },
    {
      "inputs": [
        {
          "internalType": "bytes32",
          "name": "role",
          "type": "bytes32"
        },
        {
          "internalType": "address",
          "name": "account",
          "type": "address"
        }
      ],
      "name": "revokeRole",
      "outputs": [],
      "stateMutability": "nonpayable",
      "type": "function"
    },
    {
      "inputs": [
        {
          "internalType": "bytes4",
          "name": "interfaceId",
          "type": "bytes4"
        }
      ],
      "name": "supportsInterface",
      "outputs": [
        {
          "internalType": "bool",
          "name": "",
          "type": "bool"
        }
      ],
      "stateMutability": "view",
      "type": "function"
    },
    {
      "inputs": [],
      "name": "symbol",
      "outputs": [
        {
          "internalType": "string",
          "name": "",
          "type": "string"
        }
      ],
      "stateMutability": "view",
      "type": "function"
    },
    {
      "inputs": [],
      "name": "totalSupply",
      "outputs": [
        {
          "internalType": "uint256",
          "name": "",
          "type": "uint256"
        }
      ],
      "stateMutability": "view",
      "type": "function"
    },
    {
      "inputs": [
        {
          "internalType": "address",
          "name": "to",
          "type": "address"
        },
        {
          "internalType": "uint256",
          "name": "amount",
          "type": "uint256"
        }
      ],
      "name": "transfer",
      "outputs": [
        {
          "internalType": "bool",
          "name": "",
          "type": "bool"
        }
      ],
      "stateMutability": "nonpayable",
      "type": "function"
    },
    {
      "inputs": [
        {
          "internalType": "address",
          "name": "from",
          "type": "address"
        },
        {
          "internalType": "address",
          "name": "to",
          "type": "address"
        },
        {
          "internalType": "uint256",
          "name": "amount",
          "type": "uint256"
        }
      ],
      "name": "transferFrom",
      "outputs": [
        {
          "internalType": "bool",
          "name": "",
          "type": "bool"
        }
      ],
      "stateMutability": "nonpayable",
      "type": "function"
    },
    {
      "inputs": [],
      "name": "unpause",
      "outputs": [],
      "stateMutability": "nonpayable",
      "type": "function"
    },
    {
      "inputs": [
        {
          "internalType": "address",
          "name": "user",
          "type": "address"
        },
        {
          "internalType": "string",
          "name": "activityType",
          "type": "string"
        },
        {
          "internalType": "uint256",
          "name": "activityValue",
          "type": "uint256"
        }
      ],
      "name": "validateAndRewardActivity",
      "outputs": [],
      "stateMutability": "nonpayable",
      "type": "function"
    }
  ],
  "bytecode": "0x60806040523480156200001157600080fd5b506040518060400160405280600d81526020016c2bb2b6363732b9b9aa37b5b2b760991b8152506040518060400160405280600481526020016315d1531360e21b81525081600390816200006691906200024b565b5060046200007582826200024b565b50506006805460ff1916905550600160075562000094600033620000f2565b620000c07fa49807205ce4d355092ef5a8a18f56e8913cf4a201fbe287825b095693c2177533620000f2565b620000ec7f21702c8af46127c7fa207f89d0b0a8441bb32959a0ac7df790e9ab1a25c9892633620000f2565b62000317565b620000fe828262000102565b5050565b60008281526005602090815260408083206001600160a01b038516845290915290205460ff16620000fe5760008281526005602090815260408083206001600160a01b03851684529091529020805460ff19166001179055620001623390565b6001600160a01b0316816001600160a01b0316837f2f8788117e7eff1d82e926ec794901d17c78024a50270940304540a733656f0d60405160405180910390a45050565b634e487b7160e01b600052604160045260246000fd5b600181811c90821680620001d157607f821691505b602082108103620001f257634e487b7160e01b600052602260045260246000fd5b50919050565b601f8211156200024657600081815260208120601f850160051c81016020861015620002215750805b601f850160051c820191505b8181101562000242578281556001016200022d565b5050505b505050565b81516001600160401b03811115620002675762000267620001a6565b6200027f81620002788454620001bc565b84620001f8565b602080601f831160018114620002b757600084156200029e5750858301515b600019600386901b1c1916600185901b17855562000242565b600085815260208120601f198616915b82811015620002e857888601518255948401946001909101908401620002c7565b5085821015620003075787850151600019600388901b60f8161c191681555b5050505050600190811b01905550565b611cb080620003276000396000f3fe608060405234801561001057600080fd5b50600436106102065760003560e01c80635c975abb1161011a57806395d89b41116100ad578063b467aa811161007c578063b467aa811461042f578063c49baebe14610437578063d547741f1461044c578063da65b5401461045f578063dd62ed3e1461047f57600080fd5b806395d89b41146103f9578063a217fddf14610401578063a457c2d714610409578063a9059cbb1461041c57600080fd5b806375b238fc116100e957806375b238fc146103bf5780638456cb59146103d45780638f4098e4146103dc57806391d14854146103e657600080fd5b80635c975abb1461037457806362dc6df91461037f57806367f1c16b1461038e57806370a082311461039657600080fd5b80632c59367b1161019d57806336568abe1161016c57806336568abe1461032057806339509351146103335780633f4ba83a1461034657806340a141ff1461034e5780634d238c8e1461036157600080fd5b80632c59367b146102cb5780632f2ff15d146102de578063313ce567146102f1578063325d917e1461030057600080fd5b806318160ddd116101d957806318160ddd1461027857806319a24df31461028057806323b872dd14610295578063248a9ca3146102a857600080fd5b806301ffc9a71461020b57806306fdde0314610233578063095ea7b3146102485780630f3b7e721461025b575b600080fd5b61021e610219366004611784565b610492565b60405190151581526020015b60405180910390f35b61023b6104c9565b60405161022a91906117fe565b61021e61025636600461182d565b61055b565b61026a678ac7230489e8000081565b60405190815260200161022a565b60025461026a565b61029361028e3660046118fa565b610573565b005b61021e6102a3366004611941565b6106b3565b61026a6102b636600461197d565b60009081526005602052604090206001015490565b6102936102d9366004611996565b6106d7565b6102936102ec3660046119ed565b610aa6565b6040516012815260200161022a565b61026a61030e366004611a19565b60096020526000908152604090205481565b61029361032e3660046119ed565b610acb565b61021e61034136600461182d565b610b45565b610293610b67565b61029361035c366004611a19565b610ba5565b61029361036f366004611a19565b610bf4565b60065460ff1661021e565b61026a674563918244f4000081565b610293610c40565b61026a6103a4366004611a19565b6001600160a01b031660009081526020819052604090205490565b61026a600080516020611c5b83398151915281565b610293610c86565b61026a6201518081565b61021e6103f43660046119ed565b610cc2565b61023b610ced565b61026a600081565b61021e61041736600461182d565b610cfc565b61021e61042a36600461182d565b610d77565b61026a600a81565b61026a600080516020611c3b83398151915281565b61029361045a3660046119ed565b610d85565b61026a61046d366004611a19565b60086020526000908152604090205481565b61026a61048d366004611a34565b610daa565b60006001600160e01b03198216637965db0b60e01b14806104c357506301ffc9a760e01b6001600160e01b03198316145b92915050565b6060600380546104d890611a5e565b80601f016020809104026020016040519081016040528092919081815260200182805461050490611a5e565b80156105515780601f1061052657610100808354040283529160200191610551565b820191906000526020600020905b81548152906001019060200180831161053457829003601f168201915b5050505050905090565b600033610569818585610dd5565b5060019392505050565b61057b610ef9565b610583610f3f565b600082116105ed5760405162461bcd60e51b815260206004820152602c60248201527f57656c6c6e657373546f6b656e3a20616d6f756e74206d75737420626520677260448201526b06561746572207468616e20360a41b60648201526084015b60405180910390fd5b336000908152602081905260409020548211156106585760405162461bcd60e51b815260206004820152602360248201527f57656c6c6e657373546f6b656e3a20696e73756666696369656e742062616c616044820152626e636560e81b60648201526084016105e4565b6106623383610f98565b336001600160a01b03167ffad31924d655455395c87544c8aa1ffdb5a7505a22a3c2e03f28003b6556a75f838360405161069d929190611a98565b60405180910390a26106af6001600755565b5050565b6000336106c18582856110ca565b6106cc858585611144565b506001949350505050565b6106ef600080516020611c3b83398151915233610cc2565b61074a5760405162461bcd60e51b815260206004820152602660248201527f57656c6c6e657373546f6b656e3a2076616c696461746f7220726f6c652072656044820152651c5d5a5c995960d21b60648201526084016105e4565b610752610ef9565b61075a610f3f565b6001600160a01b0383166107bc5760405162461bcd60e51b815260206004820152602360248201527f57656c6c6e657373546f6b656e3a20696e76616c69642075736572206164647260448201526265737360e81b60648201526084016105e4565b6040805180820190915260118152706d656469746174696f6e5f73747265616b60781b6020918201528251908301206000907fcb2314114b1d4c95ac7e6d5a38e6f0433c0f51015b7c2de98e88dd8e78092f7e0161089a57600782101561088b5760405162461bcd60e51b815260206004820152603860248201527f57656c6c6e657373546f6b656e3a206d656469746174696f6e2073747265616b60448201527f206d757374206265206174206c6561737420372064617973000000000000000060648201526084016105e4565b50678ac7230489e8000061096a565b604080518082019091526005815264737465707360d81b6020918201528351908401207f2322580a9b22078c76071587e6e59473470372272dd76c622c549277105cc3c10161096a576103e88210156109485760405162461bcd60e51b815260206004820152602a60248201527f57656c6c6e657373546f6b656e3a206d696e696d756d203130303020737465706044820152691cc81c995c5d5a5c995960b21b60648201526084016105e4565b674563918244f4000061095d6103e884611acf565b6109679190611af1565b90505b600081116109d05760405162461bcd60e51b815260206004820152602d60248201527f57656c6c6e657373546f6b656e3a20696e76616c69642061637469766974792060448201526c74797065206f722076616c756560981b60648201526084016105e4565b6001600160a01b038416600090815260086020908152604080832042905560099091528120805491610a0183611b08565b9190505550610a1084826112e8565b836001600160a01b03167f9d89e36eadf856db0ad9ffb5a569e07f95634dddd9501141ecf04820484ad0dc8285604051610a4b929190611a98565b60405180910390a2836001600160a01b03167f8e727eaf3bc44d6581232fe2b5f7fc895ef6b63c72ccf41caadfc4c99f0dc01e8442604051610a8e929190611b21565b60405180910390a250610aa16001600755565b505050565b600082815260056020526040902060010154610ac1816113a7565b610aa183836113b1565b6001600160a01b0381163314610b3b5760405162461bcd60e51b815260206004820152602f60248201527f416363657373436f6e74726f6c3a2063616e206f6e6c792072656e6f756e636560448201526e103937b632b9903337b91039b2b63360891b60648201526084016105e4565b6106af8282611437565b600033610569818585610b588383610daa565b610b629190611b43565b610dd5565b610b7f600080516020611c5b83398151915233610cc2565b610b9b5760405162461bcd60e51b81526004016105e490611b56565b610ba361149e565b565b610bbd600080516020611c5b83398151915233610cc2565b610bd95760405162461bcd60e51b81526004016105e490611b56565b610bf1600080516020611c3b83398151915282610d85565b50565b610c0c600080516020611c5b83398151915233610cc2565b610c285760405162461bcd60e51b81526004016105e490611b56565b610bf1600080516020611c3b83398151915282610aa6565b610c58600080516020611c5b83398151915233610cc2565b610c745760405162461bcd60e51b81526004016105e490611b56565b33600090815260096020526040812055565b610c9e600080516020611c5b83398151915233610cc2565b610cba5760405162461bcd60e51b81526004016105e490611b56565b610ba36114f0565b60009182526005602090815260408084206001600160a01b0393909316845291905290205460ff1690565b6060600480546104d890611a5e565b60003381610d0a8286610daa565b905083811015610d6a5760405162461bcd60e51b815260206004820152602560248201527f45524332303a2064656372656173656420616c6c6f77616e63652062656c6f77604482015264207a65726f60d81b60648201526084016105e4565b6106cc8286868403610dd5565b600033610569818585611144565b600082815260056020526040902060010154610da0816113a7565b610aa18383611437565b6001600160a01b03918216600090815260016020908152604080832093909416825291909152205490565b6001600160a01b038316610e375760405162461bcd60e51b8152602060048201526024808201527f45524332303a20617070726f76652066726f6d20746865207a65726f206164646044820152637265737360e01b60648201526084016105e4565b6001600160a01b038216610e985760405162461bcd60e51b815260206004820152602260248201527f45524332303a20617070726f766520746f20746865207a65726f206164647265604482015261737360f01b60648201526084016105e4565b6001600160a01b0383811660008181526001602090815260408083209487168084529482529182902085905590518481527f8c5be1e5ebec7d5bd14f71427d1e84f3dd0314c0f7b2291e5b200ac8c7c3b925910160405180910390a3505050565b60065460ff1615610ba35760405162461bcd60e51b815260206004820152601060248201526f14185d5cd8589b194e881c185d5cd95960821b60448201526064016105e4565b600260075403610f915760405162461bcd60e51b815260206004820152601f60248201527f5265656e7472616e637947756172643a207265656e7472616e742063616c6c0060448201526064016105e4565b6002600755565b6001600160a01b038216610ff85760405162461bcd60e51b815260206004820152602160248201527f45524332303a206275726e2066726f6d20746865207a65726f206164647265736044820152607360f81b60648201526084016105e4565b6001600160a01b0382166000908152602081905260409020548181101561106c5760405162461bcd60e51b815260206004820152602260248201527f45524332303a206275726e20616d6f756e7420657863656564732062616c616e604482015261636560f01b60648201526084016105e4565b6001600160a01b0383166000818152602081815260408083208686039055600280548790039055518581529192917fddf252ad1be2c89b69c2b068fc378daa952ba7f163c4a11628f55a4df523b3ef910160405180910390a3505050565b60006110d68484610daa565b9050600019811461113e57818110156111315760405162461bcd60e51b815260206004820152601d60248201527f45524332303a20696e73756666696369656e7420616c6c6f77616e636500000060448201526064016105e4565b61113e8484848403610dd5565b50505050565b6001600160a01b0383166111a85760405162461bcd60e51b815260206004820152602560248201527f45524332303a207472616e736665722066726f6d20746865207a65726f206164604482015264647265737360d81b60648201526084016105e4565b6001600160a01b03821661120a5760405162461bcd60e51b815260206004820152602360248201527f45524332303a207472616e7366657220746f20746865207a65726f206164647260448201526265737360e81b60648201526084016105e4565b6001600160a01b038316600090815260208190526040902054818110156112825760405162461bcd60e51b815260206004820152602660248201527f45524332303a207472616e7366657220616d6f756e7420657863656564732062604482015265616c616e636560d01b60648201526084016105e4565b6001600160a01b03848116600081815260208181526040808320878703905593871680835291849020805487019055925185815290927fddf252ad1be2c89b69c2b068fc378daa952ba7f163c4a11628f55a4df523b3ef910160405180910390a361113e565b6001600160a01b03821661133e5760405162461bcd60e51b815260206004820152601f60248201527f45524332303a206d696e7420746f20746865207a65726f20616464726573730060448201526064016105e4565b80600260008282546113509190611b43565b90915550506001600160a01b038216600081815260208181526040808320805486019055518481527fddf252ad1be2c89b69c2b068fc378daa952ba7f163c4a11628f55a4df523b3ef910160405180910390a35050565b610bf1813361152d565b6113bb8282610cc2565b6106af5760008281526005602090815260408083206001600160a01b03851684529091529020805460ff191660011790556113f33390565b6001600160a01b0316816001600160a01b0316837f2f8788117e7eff1d82e926ec794901d17c78024a50270940304540a733656f0d60405160405180910390a45050565b6114418282610cc2565b156106af5760008281526005602090815260408083206001600160a01b0385168085529252808320805460ff1916905551339285917ff6391f5c32d9c69d2a47ea670b442974b53935d1edc7fd64eb21e047a839171b9190a45050565b6114a6611586565b6006805460ff191690557f5db9ee0a495bf2e6ff9c91a7834c1ba4fdd244a5e8aa4e537bd38aeae4b073aa335b6040516001600160a01b03909116815260200160405180910390a1565b6114f8610ef9565b6006805460ff191660011790557f62e78cea01bee320cd4e420270b5ea74000d11b0c9f74754ebdbfc544b05a2586114d33390565b6115378282610cc2565b6106af57611544816115cf565b61154f8360206115e1565b604051602001611560929190611b98565b60408051601f198184030181529082905262461bcd60e51b82526105e4916004016117fe565b60065460ff16610ba35760405162461bcd60e51b815260206004820152601460248201527314185d5cd8589b194e881b9bdd081c185d5cd95960621b60448201526064016105e4565b60606104c36001600160a01b03831660145b606060006115f0836002611af1565b6115fb906002611b43565b67ffffffffffffffff81111561161357611613611857565b6040519080825280601f01601f19166020018201604052801561163d576020820181803683370190505b509050600360fc1b8160008151811061165857611658611c0d565b60200101906001600160f81b031916908160001a905350600f60fb1b8160018151811061168757611687611c0d565b60200101906001600160f81b031916908160001a90535060006116ab846002611af1565b6116b6906001611b43565b90505b600181111561172e576f181899199a1a9b1b9c1cb0b131b232b360811b85600f16601081106116ea576116ea611c0d565b1a60f81b82828151811061170057611700611c0d565b60200101906001600160f81b031916908160001a90535060049490941c9361172781611c23565b90506116b9565b50831561177d5760405162461bcd60e51b815260206004820181905260248201527f537472696e67733a20686578206c656e67746820696e73756666696369656e7460448201526064016105e4565b9392505050565b60006020828403121561179657600080fd5b81356001600160e01b03198116811461177d57600080fd5b60005b838110156117c95781810151838201526020016117b1565b50506000910152565b600081518084526117ea8160208601602086016117ae565b601f01601f19169290920160200192915050565b60208152600061177d60208301846117d2565b80356001600160a01b038116811461182857600080fd5b919050565b6000806040838503121561184057600080fd5b61184983611811565b946020939093013593505050565b634e487b7160e01b600052604160045260246000fd5b600082601f83011261187e57600080fd5b813567ffffffffffffffff8082111561189957611899611857565b604051601f8301601f19908116603f011681019082821181831017156118c1576118c1611857565b816040528381528660208588010111156118da57600080fd5b836020870160208301376000602085830101528094505050505092915050565b6000806040838503121561190d57600080fd5b82359150602083013567ffffffffffffffff81111561192b57600080fd5b6119378582860161186d565b9150509250929050565b60008060006060848603121561195657600080fd5b61195f84611811565b925061196d60208501611811565b9150604084013590509250925092565b60006020828403121561198f57600080fd5b5035919050565b6000806000606084860312156119ab57600080fd5b6119b484611811565b9250602084013567ffffffffffffffff8111156119d057600080fd5b6119dc8682870161186d565b925050604084013590509250925092565b60008060408385031215611a0057600080fd5b82359150611a1060208401611811565b90509250929050565b600060208284031215611a2b57600080fd5b61177d82611811565b60008060408385031215611a4757600080fd5b611a5083611811565b9150611a1060208401611811565b600181811c90821680611a7257607f821691505b602082108103611a9257634e487b7160e01b600052602260045260246000fd5b50919050565b828152604060208201526000611ab160408301846117d2565b949350505050565b634e487b7160e01b600052601160045260246000fd5b600082611aec57634e487b7160e01b600052601260045260246000fd5b500490565b80820281158282048414176104c3576104c3611ab9565b600060018201611b1a57611b1a611ab9565b5060010190565b604081526000611b3460408301856117d2565b90508260208301529392505050565b808201808211156104c3576104c3611ab9565b60208082526022908201527f57656c6c6e657373546f6b656e3a2061646d696e20726f6c6520726571756972604082015261195960f21b606082015260800190565b7f416363657373436f6e74726f6c3a206163636f756e7420000000000000000000815260008351611bd08160178501602088016117ae565b7001034b99036b4b9b9b4b733903937b6329607d1b6017918401918201528351611c018160288401602088016117ae565b01602801949350505050565b634e487b7160e01b600052603260045260246000fd5b600081611c3257611c32611ab9565b50600019019056fe21702c8af46127c7fa207f89d0b0a8441bb32959a0ac7df790e9ab1a25c98926a49807205ce4d355092ef5a8a18f56e8913cf4a201fbe287825b095693c21775a264697066735822122076491ebf4d67c07cdd9ee372a9041e0b05a9284adffe110e12b2c7849e38231c64736f6c63430008130033",
  "linkReferences": {},
  "deployedLinkReferences": {}
}